{
  "contractName": "Ticket",
  "abi": [
    {
      "inputs": [
        {
          "internalType": "uint256",
          "name": "_nbrTicket",
          "type": "uint256"
        },
        {
          "internalType": "uint256",
          "name": "_prix",
          "type": "uint256"
        },
        {
          "internalType": "string",
          "name": "_nomEvenement",
          "type": "string"
        },
        {
          "internalType": "uint256",
          "name": "_dateEvenement",
          "type": "uint256"
        }
      ],
      "stateMutability": "nonpayable",
      "type": "constructor"
    },
    {
      "inputs": [
        {
          "internalType": "address",
          "name": "",
          "type": "address"
        }
      ],
      "name": "acheteurs",
      "outputs": [
        {
          "internalType": "uint256",
          "name": "id",
          "type": "uint256"
        },
        {
          "internalType": "uint256",
          "name": "dateAchat",
          "type": "uint256"
        },
        {
          "internalType": "address",
          "name": "acheteur",
          "type": "address"
        },
        {
          "internalType": "uint256",
          "name": "prix",
          "type": "uint256"
        },
        {
          "internalType": "bool",
          "name": "enVente",
          "type": "bool"
        }
      ],
      "stateMutability": "view",
      "type": "function",
      "constant": true
    },
    {
      "inputs": [],
      "name": "dateEvenement",
      "outputs": [
        {
          "internalType": "uint256",
          "name": "",
          "type": "uint256"
        }
      ],
      "stateMutability": "view",
      "type": "function",
      "constant": true
    },
    {
      "inputs": [],
      "name": "nbrTicket",
      "outputs": [
        {
          "internalType": "uint256",
          "name": "",
          "type": "uint256"
        }
      ],
      "stateMutability": "view",
      "type": "function",
      "constant": true
    },
    {
      "inputs": [],
      "name": "nomEvenement",
      "outputs": [
        {
          "internalType": "string",
          "name": "",
          "type": "string"
        }
      ],
      "stateMutability": "view",
      "type": "function",
      "constant": true
    },
    {
      "inputs": [
        {
          "internalType": "uint256",
          "name": "",
          "type": "uint256"
        }
      ],
      "name": "tickets",
      "outputs": [
        {
          "internalType": "uint256",
          "name": "id",
          "type": "uint256"
        },
        {
          "internalType": "uint256",
          "name": "dateAchat",
          "type": "uint256"
        },
        {
          "internalType": "address",
          "name": "acheteur",
          "type": "address"
        },
        {
          "internalType": "uint256",
          "name": "prix",
          "type": "uint256"
        },
        {
          "internalType": "bool",
          "name": "enVente",
          "type": "bool"
        }
      ],
      "stateMutability": "view",
      "type": "function",
      "constant": true
    },
    {
      "inputs": [
        {
          "internalType": "bool",
          "name": "_enVente",
          "type": "bool"
        },
        {
          "internalType": "uint256",
          "name": "_price",
          "type": "uint256"
        }
      ],
      "name": "vendre",
      "outputs": [],
      "stateMutability": "nonpayable",
      "type": "function"
    },
    {
      "inputs": [
        {
          "internalType": "uint256",
          "name": "_idTicket",
          "type": "uint256"
        }
      ],
      "name": "acheter",
      "outputs": [],
      "stateMutability": "payable",
      "type": "function",
      "payable": true
    },
    {
      "inputs": [],
      "name": "recolter",
      "outputs": [],
      "stateMutability": "nonpayable",
      "type": "function"
    }
  ],
  "bytecode": "0x60806040523480156200001157600080fd5b50604051620018c9380380620018c98339818101604052810190620000379190620003b3565b33600260006101000a81548173ffffffffffffffffffffffffffffffffffffffff021916908373ffffffffffffffffffffffffffffffffffffffff16021790555083600081905550816003908162000090919062000685565b50806004819055506000600190505b6000548111620001da5760006040518060a0016040528083815260200160008152602001600260009054906101000a900473ffffffffffffffffffffffffffffffffffffffff1673ffffffffffffffffffffffffffffffffffffffff1681526020018681526020016001151581525090506001819080600181540180825580915050600190039060005260206000209060050201600090919091909150600082015181600001556020820151816001015560408201518160020160006101000a81548173ffffffffffffffffffffffffffffffffffffffff021916908373ffffffffffffffffffffffffffffffffffffffff1602179055506060820151816003015560808201518160040160006101000a81548160ff0219169083151502179055505050508080620001d1906200079b565b9150506200009f565b5050505050620007e8565b6000604051905090565b600080fd5b600080fd5b6000819050919050565b6200020e81620001f9565b81146200021a57600080fd5b50565b6000815190506200022e8162000203565b92915050565b600080fd5b600080fd5b6000601f19601f8301169050919050565b7f4e487b7100000000000000000000000000000000000000000000000000000000600052604160045260246000fd5b62000289826200023e565b810181811067ffffffffffffffff82111715620002ab57620002aa6200024f565b5b80604052505050565b6000620002c0620001e5565b9050620002ce82826200027e565b919050565b600067ffffffffffffffff821115620002f157620002f06200024f565b5b620002fc826200023e565b9050602081019050919050565b60005b83811015620003295780820151818401526020810190506200030c565b60008484015250505050565b60006200034c6200034684620002d3565b620002b4565b9050828152602081018484840111156200036b576200036a62000239565b5b6200037884828562000309565b509392505050565b600082601f83011262000398576200039762000234565b5b8151620003aa84826020860162000335565b91505092915050565b60008060008060808587031215620003d057620003cf620001ef565b5b6000620003e0878288016200021d565b9450506020620003f3878288016200021d565b935050604085015167ffffffffffffffff811115620004175762000416620001f4565b5b620004258782880162000380565b925050606062000438878288016200021d565b91505092959194509250565b600081519050919050565b7f4e487b7100000000000000000000000000000000000000000000000000000000600052602260045260246000fd5b600060028204905060018216806200049757607f821691505b602082108103620004ad57620004ac6200044f565b5b50919050565b60008190508160005260206000209050919050565b60006020601f8301049050919050565b600082821b905092915050565b600060088302620005177fffffffffffffffffffffffffffffffffffffffffffffffffffffffffffffffff82620004d8565b620005238683620004d8565b95508019841693508086168417925050509392505050565b6000819050919050565b600062000566620005606200055a84620001f9565b6200053b565b620001f9565b9050919050565b6000819050919050565b620005828362000545565b6200059a62000591826200056d565b848454620004e5565b825550505050565b600090565b620005b1620005a2565b620005be81848462000577565b505050565b5b81811015620005e657620005da600082620005a7565b600181019050620005c4565b5050565b601f8211156200063557620005ff81620004b3565b6200060a84620004c8565b810160208510156200061a578190505b620006326200062985620004c8565b830182620005c3565b50505b505050565b600082821c905092915050565b60006200065a600019846008026200063a565b1980831691505092915050565b600062000675838362000647565b9150826002028217905092915050565b620006908262000444565b67ffffffffffffffff811115620006ac57620006ab6200024f565b5b620006b882546200047e565b620006c5828285620005ea565b600060209050601f831160018114620006fd5760008415620006e8578287015190505b620006f4858262000667565b86555062000764565b601f1984166200070d86620004b3565b60005b82811015620007375784890151825560018201915060208501945060208101905062000710565b8683101562000757578489015162000753601f89168262000647565b8355505b6001600288020188555050505b505050505050565b7f4e487b7100000000000000000000000000000000000000000000000000000000600052601160045260246000fd5b6000620007a882620001f9565b91507fffffffffffffffffffffffffffffffffffffffffffffffffffffffffffffffff8203620007dd57620007dc6200076c565b5b600182019050919050565b6110d180620007f86000396000f3fe60806040526004361061007b5760003560e01c8063d3bf14131161004e578063d3bf141314610142578063d999e0f91461016b578063e611ef0814610187578063f443316f1461019e5761007b565b806350b4471214610080578063517a0569146100c157806361b42242146100ec578063bc1c23af14610117575b600080fd5b34801561008c57600080fd5b506100a760048036038101906100a29190610a02565b6101df565b6040516100b8959493929190610a9a565b60405180910390f35b3480156100cd57600080fd5b506100d6610252565b6040516100e39190610aed565b60405180910390f35b3480156100f857600080fd5b50610101610258565b60405161010e9190610b98565b60405180910390f35b34801561012357600080fd5b5061012c6102e6565b6040516101399190610aed565b60405180910390f35b34801561014e57600080fd5b5061016960048036038101906101649190610be6565b6102ec565b005b61018560048036038101906101809190610a02565b610425565b005b34801561019357600080fd5b5061019c610863565b005b3480156101aa57600080fd5b506101c560048036038101906101c09190610c52565b610964565b6040516101d6959493929190610a9a565b60405180910390f35b600181815481106101ef57600080fd5b90600052602060002090600502016000915090508060000154908060010154908060020160009054906101000a900473ffffffffffffffffffffffffffffffffffffffff16908060030154908060040160009054906101000a900460ff16905085565b60005481565b6003805461026590610cae565b80601f016020809104026020016040519081016040528092919081815260200182805461029190610cae565b80156102de5780601f106102b3576101008083540402835291602001916102de565b820191906000526020600020905b8154815290600101906020018083116102c157829003601f168201915b505050505081565b60045481565b6000600560003373ffffffffffffffffffffffffffffffffffffffff1673ffffffffffffffffffffffffffffffffffffffff16815260200190815260200160002090506000816001015403610376576040517f08c379a000000000000000000000000000000000000000000000000000000000815260040161036d90610d2b565b60405180910390fd5b828160040160006101000a81548160ff0219169083151502179055508181600301819055508260018083600001546103ae9190610d7a565b815481106103bf576103be610dae565b5b906000526020600020906005020160040160006101000a81548160ff0219169083151502179055508160018083600001546103fa9190610d7a565b8154811061040b5761040a610dae565b5b906000526020600020906005020160030181905550505050565b60005481111561046a576040517f08c379a000000000000000000000000000000000000000000000000000000000815260040161046190610e29565b60405180910390fd5b6000600560003373ffffffffffffffffffffffffffffffffffffffff1673ffffffffffffffffffffffffffffffffffffffff16815260200190815260200160002060010154146104ef576040517f08c379a00000000000000000000000000000000000000000000000000000000081526004016104e690610e95565b60405180910390fd5b6000600180836104ff9190610d7a565b815481106105105761050f610dae565b5b90600052602060002090600502019050600015158160040160009054906101000a900460ff16151503610578576040517f08c379a000000000000000000000000000000000000000000000000000000000815260040161056f90610f01565b60405180910390fd5b34816003015411156105bf576040517f08c379a00000000000000000000000000000000000000000000000000000000081526004016105b690610f6d565b60405180910390fd5b42816001018190555060008160040160006101000a81548160ff021916908315150217905550600060646063346105f69190610f8d565b6106009190610ffe565b90508160020160009054906101000a900473ffffffffffffffffffffffffffffffffffffffff1673ffffffffffffffffffffffffffffffffffffffff166108fc829081150290604051600060405180830381858888f1935050505015801561066c573d6000803e3d6000fd5b50600560008360020160009054906101000a900473ffffffffffffffffffffffffffffffffffffffff1673ffffffffffffffffffffffffffffffffffffffff1673ffffffffffffffffffffffffffffffffffffffff16815260200190815260200160002060008082016000905560018201600090556002820160006101000a81549073ffffffffffffffffffffffffffffffffffffffff021916905560038201600090556004820160006101000a81549060ff02191690555050338260020160006101000a81548173ffffffffffffffffffffffffffffffffffffffff021916908373ffffffffffffffffffffffffffffffffffffffff16021790555081600560003373ffffffffffffffffffffffffffffffffffffffff1673ffffffffffffffffffffffffffffffffffffffff16815260200190815260200160002060008201548160000155600182015481600101556002820160009054906101000a900473ffffffffffffffffffffffffffffffffffffffff168160020160006101000a81548173ffffffffffffffffffffffffffffffffffffffff021916908373ffffffffffffffffffffffffffffffffffffffff160217905550600382015481600301556004820160009054906101000a900460ff168160040160006101000a81548160ff021916908315150217905550905050505050565b600260009054906101000a900473ffffffffffffffffffffffffffffffffffffffff1673ffffffffffffffffffffffffffffffffffffffff163373ffffffffffffffffffffffffffffffffffffffff16146108f3576040517f08c379a00000000000000000000000000000000000000000000000000000000081526004016108ea9061107b565b60405180910390fd5b6000479050600260009054906101000a900473ffffffffffffffffffffffffffffffffffffffff1673ffffffffffffffffffffffffffffffffffffffff166108fc829081150290604051600060405180830381858888f19350505050158015610960573d6000803e3d6000fd5b5050565b60056020528060005260406000206000915090508060000154908060010154908060020160009054906101000a900473ffffffffffffffffffffffffffffffffffffffff16908060030154908060040160009054906101000a900460ff16905085565b600080fd5b6000819050919050565b6109df816109cc565b81146109ea57600080fd5b50565b6000813590506109fc816109d6565b92915050565b600060208284031215610a1857610a176109c7565b5b6000610a26848285016109ed565b91505092915050565b610a38816109cc565b82525050565b600073ffffffffffffffffffffffffffffffffffffffff82169050919050565b6000610a6982610a3e565b9050919050565b610a7981610a5e565b82525050565b60008115159050919050565b610a9481610a7f565b82525050565b600060a082019050610aaf6000830188610a2f565b610abc6020830187610a2f565b610ac96040830186610a70565b610ad66060830185610a2f565b610ae36080830184610a8b565b9695505050505050565b6000602082019050610b026000830184610a2f565b92915050565b600081519050919050565b600082825260208201905092915050565b60005b83811015610b42578082015181840152602081019050610b27565b60008484015250505050565b6000601f19601f8301169050919050565b6000610b6a82610b08565b610b748185610b13565b9350610b84818560208601610b24565b610b8d81610b4e565b840191505092915050565b60006020820190508181036000830152610bb28184610b5f565b905092915050565b610bc381610a7f565b8114610bce57600080fd5b50565b600081359050610be081610bba565b92915050565b60008060408385031215610bfd57610bfc6109c7565b5b6000610c0b85828601610bd1565b9250506020610c1c858286016109ed565b9150509250929050565b610c2f81610a5e565b8114610c3a57600080fd5b50565b600081359050610c4c81610c26565b92915050565b600060208284031215610c6857610c676109c7565b5b6000610c7684828501610c3d565b91505092915050565b7f4e487b7100000000000000000000000000000000000000000000000000000000600052602260045260246000fd5b60006002820490506001821680610cc657607f821691505b602082108103610cd957610cd8610c7f565b5b50919050565b7f796f7520646f6e2074206861766520616e79207469636b657400000000000000600082015250565b6000610d15601983610b13565b9150610d2082610cdf565b602082019050919050565b60006020820190508181036000830152610d4481610d08565b9050919050565b7f4e487b7100000000000000000000000000000000000000000000000000000000600052601160045260246000fd5b6000610d85826109cc565b9150610d90836109cc565b9250828203905081811115610da857610da7610d4b565b5b92915050565b7f4e487b7100000000000000000000000000000000000000000000000000000000600052603260045260246000fd5b7f696420646f65736e207420657869737400000000000000000000000000000000600082015250565b6000610e13601083610b13565b9150610e1e82610ddd565b602082019050919050565b60006020820190508181036000830152610e4281610e06565b9050919050565b7f796f752063616e207420627579206d6f7265207468616e2031207469636b6574600082015250565b6000610e7f602083610b13565b9150610e8a82610e49565b602082019050919050565b60006020820190508181036000830152610eae81610e72565b9050919050565b7f74686973207469636b6574206973206e6f7420666f722073656c6c0000000000600082015250565b6000610eeb601b83610b13565b9150610ef682610eb5565b602082019050919050565b60006020820190508181036000830152610f1a81610ede565b9050919050565b7f6e6f7420656e6f75676820657468657265756d00000000000000000000000000600082015250565b6000610f57601383610b13565b9150610f6282610f21565b602082019050919050565b60006020820190508181036000830152610f8681610f4a565b9050919050565b6000610f98826109cc565b9150610fa3836109cc565b9250828202610fb1816109cc565b91508282048414831517610fc857610fc7610d4b565b5b5092915050565b7f4e487b7100000000000000000000000000000000000000000000000000000000600052601260045260246000fd5b6000611009826109cc565b9150611014836109cc565b92508261102457611023610fcf565b5b828204905092915050565b7f752072206e6f7420746865206f776e6572000000000000000000000000000000600082015250565b6000611065601183610b13565b91506110708261102f565b602082019050919050565b6000602082019050818103600083015261109481611058565b905091905056fea2646970667358221220436d557a4f75995da876440ec1f56751b17a2f41e17b056a4ccaffab3e9f98c564736f6c63430008130033",
  "immutableReferences": {},
  "source": "//SPDX-License-Identifier: MIT\n\npragma solidity ^0.8.8;\n\nstruct TicketStr{\n    uint256 id ;\n    uint256 dateAchat;\n    address acheteur;\n    uint256 prix;\n    bool enVente;\n    //https://meet.google.com/qut-jhfw-onh\n}\ncontract Ticket{\n    uint256 public nbrTicket;\n    TicketStr[] public tickets;\n    address private proprietaire;\n    string public nomEvenement;\n    uint256 public dateEvenement;\n    mapping( address => TicketStr ) public acheteurs;\n\n    constructor(uint256 _nbrTicket,uint256 _prix, \n    string memory _nomEvenement, uint256 _dateEvenement   ){\n            proprietaire= msg.sender;\n            nbrTicket=_nbrTicket;\n            nomEvenement=_nomEvenement;\n            dateEvenement=_dateEvenement;\n            for(uint256 i=1;i<=nbrTicket;i++)\n            {\n                TicketStr memory ticket=TicketStr(i,0,proprietaire,_prix,true);\n                tickets.push(ticket);\n            }\n    }\n\n    function vendre(bool _enVente,uint256 _price) external{\n         TicketStr storage ticket=   acheteurs[msg.sender];\n        \n        if(ticket.dateAchat==0)\n            revert('you don t have any ticket');\n        \n        ticket.enVente=_enVente;\n        ticket.prix=_price;\n        tickets[ticket.id-1].enVente=_enVente;\n        tickets[ticket.id-1].prix=_price;\n    }\n\n\n\n\n    function acheter(uint256 _idTicket) public payable{\n      \n       /*   if(msg.value<prix)\n            revert('not enough ethereum');\n        if(acheteurs[msg.sender].dateAchat!=0)\n            revert('you can t buy more than 1 ticket');\n*/\n        if(_idTicket>nbrTicket)\n            revert('id doesn t exist');\n\n        if(acheteurs[msg.sender].dateAchat!=0) // 1 ticket per address\n            revert('you can t buy more than 1 ticket');\n\n        TicketStr storage ticket = tickets[_idTicket-1];\n\n        if(ticket.enVente==false)\n           revert('this ticket is not for sell'); \n\n        if(ticket.prix>msg.value)\n            revert('not enough ethereum'); \n\n        ticket.dateAchat=block.timestamp;\n        ticket.enVente=false;\n        uint256 balance = msg.value*99/100;//commision de 1%\n        payable(ticket.acheteur).transfer(balance);\n        delete acheteurs[ticket.acheteur];\n        ticket.acheteur=msg.sender;\n        acheteurs[msg.sender]=ticket;\n        \n\n    }\n    function recolter() external{\n        if(msg.sender!=proprietaire)\n            revert(\"u r not the owner\");\n       // address(0x617F2E2fD72FD9D5503197092aC168c91465E7f2).balance;\n        uint256 balance = address(this).balance;\n        payable(proprietaire).transfer(balance);\n    }\n}",
  "sourcePath": "/Users/mehditmimi/Documents/blockchain ppts/projects/demo/contracts/Ticket.sol",
  "compiler": {
    "name": "solc",
    "version": "0.8.19+commit.7dd6d404.Emscripten.clang"
  },
  "schemaVersion": "3.4.13",
  "updatedAt": "2023-06-05T08:12:28.021Z",
  "networkType": "ethereum",
  "devdoc": {
    "kind": "dev",
    "methods": {},
    "version": 1
  },
  "userdoc": {
    "kind": "user",
    "methods": {},
    "version": 1
  }
}