{
  "contractName": "Ticket",
  "abi": [
    {
      "inputs": [
        {
          "internalType": "uint256",
          "name": "_nbrTicket",
          "type": "uint256"
        },
        {
          "internalType": "uint256",
          "name": "_prix",
          "type": "uint256"
        },
        {
          "internalType": "string",
          "name": "_nomEvenement",
          "type": "string"
        },
        {
          "internalType": "uint256",
          "name": "_dateEvenement",
          "type": "uint256"
        }
      ],
      "stateMutability": "nonpayable",
      "type": "constructor"
    },
    {
      "inputs": [
        {
          "internalType": "address",
          "name": "",
          "type": "address"
        }
      ],
      "name": "acheteurs",
      "outputs": [
        {
          "internalType": "uint256",
          "name": "id",
          "type": "uint256"
        },
        {
          "internalType": "uint256",
          "name": "dateAchat",
          "type": "uint256"
        },
        {
          "internalType": "address",
          "name": "acheteur",
          "type": "address"
        },
        {
          "internalType": "uint256",
          "name": "prix",
          "type": "uint256"
        },
        {
          "internalType": "bool",
          "name": "enVente",
          "type": "bool"
        }
      ],
      "stateMutability": "view",
      "type": "function",
      "constant": true
    },
    {
      "inputs": [],
      "name": "dateEvenement",
      "outputs": [
        {
          "internalType": "uint256",
          "name": "",
          "type": "uint256"
        }
      ],
      "stateMutability": "view",
      "type": "function",
      "constant": true
    },
    {
      "inputs": [],
      "name": "nbrTicket",
      "outputs": [
        {
          "internalType": "uint256",
          "name": "",
          "type": "uint256"
        }
      ],
      "stateMutability": "view",
      "type": "function",
      "constant": true
    },
    {
      "inputs": [],
      "name": "nomEvenement",
      "outputs": [
        {
          "internalType": "string",
          "name": "",
          "type": "string"
        }
      ],
      "stateMutability": "view",
      "type": "function",
      "constant": true
    },
    {
      "inputs": [],
      "name": "proprietaire",
      "outputs": [
        {
          "internalType": "address",
          "name": "",
          "type": "address"
        }
      ],
      "stateMutability": "view",
      "type": "function",
      "constant": true
    },
    {
      "inputs": [
        {
          "internalType": "uint256",
          "name": "",
          "type": "uint256"
        }
      ],
      "name": "tickets",
      "outputs": [
        {
          "internalType": "uint256",
          "name": "id",
          "type": "uint256"
        },
        {
          "internalType": "uint256",
          "name": "dateAchat",
          "type": "uint256"
        },
        {
          "internalType": "address",
          "name": "acheteur",
          "type": "address"
        },
        {
          "internalType": "uint256",
          "name": "prix",
          "type": "uint256"
        },
        {
          "internalType": "bool",
          "name": "enVente",
          "type": "bool"
        }
      ],
      "stateMutability": "view",
      "type": "function",
      "constant": true
    },
    {
      "inputs": [
        {
          "internalType": "bool",
          "name": "_enVente",
          "type": "bool"
        },
        {
          "internalType": "uint256",
          "name": "_price",
          "type": "uint256"
        }
      ],
      "name": "vendre",
      "outputs": [],
      "stateMutability": "nonpayable",
      "type": "function"
    },
    {
      "inputs": [],
      "name": "retirer",
      "outputs": [],
      "stateMutability": "nonpayable",
      "type": "function"
    },
    {
      "inputs": [
        {
          "internalType": "uint256",
          "name": "_idTicket",
          "type": "uint256"
        }
      ],
      "name": "acheter",
      "outputs": [],
      "stateMutability": "payable",
      "type": "function",
      "payable": true
    },
    {
      "inputs": [],
      "name": "recolter",
      "outputs": [],
      "stateMutability": "nonpayable",
      "type": "function"
    }
  ],
  "bytecode": "0x60806040523480156200001157600080fd5b506040516200187d3803806200187d833981810160405281019062000037919062000474565b33600260006101000a81548173ffffffffffffffffffffffffffffffffffffffff021916908373ffffffffffffffffffffffffffffffffffffffff16021790555083600081905550816003908051906020019062000097929190620001ec565b50806004819055506000600190505b6000548111620001e15760006040518060a0016040528083815260200160008152602001600260009054906101000a900473ffffffffffffffffffffffffffffffffffffffff1673ffffffffffffffffffffffffffffffffffffffff1681526020018681526020016001151581525090506001819080600181540180825580915050600190039060005260206000209060050201600090919091909150600082015181600001556020820151816001015560408201518160020160006101000a81548173ffffffffffffffffffffffffffffffffffffffff021916908373ffffffffffffffffffffffffffffffffffffffff1602179055506060820151816003015560808201518160040160006101000a81548160ff0219169083151502179055505050508080620001d89062000534565b915050620000a6565b5050505050620005e7565b828054620001fa90620005b1565b90600052602060002090601f0160209004810192826200021e57600085556200026a565b82601f106200023957805160ff19168380011785556200026a565b828001600101855582156200026a579182015b82811115620002695782518255916020019190600101906200024c565b5b5090506200027991906200027d565b5090565b5b80821115620002985760008160009055506001016200027e565b5090565b6000604051905090565b600080fd5b600080fd5b6000819050919050565b620002c581620002b0565b8114620002d157600080fd5b50565b600081519050620002e581620002ba565b92915050565b600080fd5b600080fd5b6000601f19601f8301169050919050565b7f4e487b7100000000000000000000000000000000000000000000000000000000600052604160045260246000fd5b6200034082620002f5565b810181811067ffffffffffffffff8211171562000362576200036162000306565b5b80604052505050565b6000620003776200029c565b905062000385828262000335565b919050565b600067ffffffffffffffff821115620003a857620003a762000306565b5b620003b382620002f5565b9050602081019050919050565b60005b83811015620003e0578082015181840152602081019050620003c3565b83811115620003f0576000848401525b50505050565b60006200040d62000407846200038a565b6200036b565b9050828152602081018484840111156200042c576200042b620002f0565b5b62000439848285620003c0565b509392505050565b600082601f830112620004595762000458620002eb565b5b81516200046b848260208601620003f6565b91505092915050565b60008060008060808587031215620004915762000490620002a6565b5b6000620004a187828801620002d4565b9450506020620004b487828801620002d4565b935050604085015167ffffffffffffffff811115620004d857620004d7620002ab565b5b620004e68782880162000441565b9250506060620004f987828801620002d4565b91505092959194509250565b7f4e487b7100000000000000000000000000000000000000000000000000000000600052601160045260246000fd5b60006200054182620002b0565b91507fffffffffffffffffffffffffffffffffffffffffffffffffffffffffffffffff82141562000577576200057662000505565b5b600182019050919050565b7f4e487b7100000000000000000000000000000000000000000000000000000000600052602260045260246000fd5b60006002820490506001821680620005ca57607f821691505b60208210811415620005e157620005e062000582565b5b50919050565b61128680620005f76000396000f3fe6080604052600436106100915760003560e01c8063bc1c23af11610059578063bc1c23af1461016f578063d3bf14131461019a578063d999e0f9146101c3578063e611ef08146101df578063f443316f146101f657610091565b80632c9ec6031461009657806350b44712146100ad578063517a0569146100ee57806361b422421461011957806379583ee514610144575b600080fd5b3480156100a257600080fd5b506100ab610237565b005b3480156100b957600080fd5b506100d460048036038101906100cf9190610b7a565b61032f565b6040516100e5959493929190610c12565b60405180910390f35b3480156100fa57600080fd5b506101036103a2565b6040516101109190610c65565b60405180910390f35b34801561012557600080fd5b5061012e6103a8565b60405161013b9190610d19565b60405180910390f35b34801561015057600080fd5b50610159610436565b6040516101669190610d3b565b60405180910390f35b34801561017b57600080fd5b5061018461045c565b6040516101919190610c65565b60405180910390f35b3480156101a657600080fd5b506101c160048036038101906101bc9190610d82565b610462565b005b6101dd60048036038101906101d89190610b7a565b61059c565b005b3480156101eb57600080fd5b506101f46109db565b005b34801561020257600080fd5b5061021d60048036038101906102189190610dee565b610adc565b60405161022e959493929190610c12565b60405180910390f35b6000600560003373ffffffffffffffffffffffffffffffffffffffff1673ffffffffffffffffffffffffffffffffffffffff16815260200190815260200160002090506000816001015414156102c2576040517f08c379a00000000000000000000000000000000000000000000000000000000081526004016102b990610e67565b60405180910390fd5b60008160040160006101000a81548160ff021916908315150217905550600060018083600001546102f39190610eb6565b8154811061030457610303610eea565b5b906000526020600020906005020160040160006101000a81548160ff02191690831515021790555050565b6001818154811061033f57600080fd5b90600052602060002090600502016000915090508060000154908060010154908060020160009054906101000a900473ffffffffffffffffffffffffffffffffffffffff16908060030154908060040160009054906101000a900460ff16905085565b60005481565b600380546103b590610f48565b80601f01602080910402602001604051908101604052809291908181526020018280546103e190610f48565b801561042e5780601f106104035761010080835404028352916020019161042e565b820191906000526020600020905b81548152906001019060200180831161041157829003601f168201915b505050505081565b600260009054906101000a900473ffffffffffffffffffffffffffffffffffffffff1681565b60045481565b6000600560003373ffffffffffffffffffffffffffffffffffffffff1673ffffffffffffffffffffffffffffffffffffffff16815260200190815260200160002090506000816001015414156104ed576040517f08c379a00000000000000000000000000000000000000000000000000000000081526004016104e490610e67565b60405180910390fd5b828160040160006101000a81548160ff0219169083151502179055508181600301819055508260018083600001546105259190610eb6565b8154811061053657610535610eea565b5b906000526020600020906005020160040160006101000a81548160ff0219169083151502179055508160018083600001546105719190610eb6565b8154811061058257610581610eea565b5b906000526020600020906005020160030181905550505050565b6000548111156105e1576040517f08c379a00000000000000000000000000000000000000000000000000000000081526004016105d890610fc6565b60405180910390fd5b6000600560003373ffffffffffffffffffffffffffffffffffffffff1673ffffffffffffffffffffffffffffffffffffffff1681526020019081526020016000206001015414610666576040517f08c379a000000000000000000000000000000000000000000000000000000000815260040161065d90611032565b60405180910390fd5b6000600180836106769190610eb6565b8154811061068757610686610eea565b5b90600052602060002090600502019050600015158160040160009054906101000a900460ff16151514156106f0576040517f08c379a00000000000000000000000000000000000000000000000000000000081526004016106e79061109e565b60405180910390fd5b3481600301541115610737576040517f08c379a000000000000000000000000000000000000000000000000000000000815260040161072e9061110a565b60405180910390fd5b42816001018190555060008160040160006101000a81548160ff0219169083151502179055506000606460633461076e919061112a565b61077891906111b3565b90508160020160009054906101000a900473ffffffffffffffffffffffffffffffffffffffff1673ffffffffffffffffffffffffffffffffffffffff166108fc829081150290604051600060405180830381858888f193505050501580156107e4573d6000803e3d6000fd5b50600560008360020160009054906101000a900473ffffffffffffffffffffffffffffffffffffffff1673ffffffffffffffffffffffffffffffffffffffff1673ffffffffffffffffffffffffffffffffffffffff16815260200190815260200160002060008082016000905560018201600090556002820160006101000a81549073ffffffffffffffffffffffffffffffffffffffff021916905560038201600090556004820160006101000a81549060ff02191690555050338260020160006101000a81548173ffffffffffffffffffffffffffffffffffffffff021916908373ffffffffffffffffffffffffffffffffffffffff16021790555081600560003373ffffffffffffffffffffffffffffffffffffffff1673ffffffffffffffffffffffffffffffffffffffff16815260200190815260200160002060008201548160000155600182015481600101556002820160009054906101000a900473ffffffffffffffffffffffffffffffffffffffff168160020160006101000a81548173ffffffffffffffffffffffffffffffffffffffff021916908373ffffffffffffffffffffffffffffffffffffffff160217905550600382015481600301556004820160009054906101000a900460ff168160040160006101000a81548160ff021916908315150217905550905050505050565b600260009054906101000a900473ffffffffffffffffffffffffffffffffffffffff1673ffffffffffffffffffffffffffffffffffffffff163373ffffffffffffffffffffffffffffffffffffffff1614610a6b576040517f08c379a0000000000000000000000000000000000000000000000000000000008152600401610a6290611230565b60405180910390fd5b6000479050600260009054906101000a900473ffffffffffffffffffffffffffffffffffffffff1673ffffffffffffffffffffffffffffffffffffffff166108fc829081150290604051600060405180830381858888f19350505050158015610ad8573d6000803e3d6000fd5b5050565b60056020528060005260406000206000915090508060000154908060010154908060020160009054906101000a900473ffffffffffffffffffffffffffffffffffffffff16908060030154908060040160009054906101000a900460ff16905085565b600080fd5b6000819050919050565b610b5781610b44565b8114610b6257600080fd5b50565b600081359050610b7481610b4e565b92915050565b600060208284031215610b9057610b8f610b3f565b5b6000610b9e84828501610b65565b91505092915050565b610bb081610b44565b82525050565b600073ffffffffffffffffffffffffffffffffffffffff82169050919050565b6000610be182610bb6565b9050919050565b610bf181610bd6565b82525050565b60008115159050919050565b610c0c81610bf7565b82525050565b600060a082019050610c276000830188610ba7565b610c346020830187610ba7565b610c416040830186610be8565b610c4e6060830185610ba7565b610c5b6080830184610c03565b9695505050505050565b6000602082019050610c7a6000830184610ba7565b92915050565b600081519050919050565b600082825260208201905092915050565b60005b83811015610cba578082015181840152602081019050610c9f565b83811115610cc9576000848401525b50505050565b6000601f19601f8301169050919050565b6000610ceb82610c80565b610cf58185610c8b565b9350610d05818560208601610c9c565b610d0e81610ccf565b840191505092915050565b60006020820190508181036000830152610d338184610ce0565b905092915050565b6000602082019050610d506000830184610be8565b92915050565b610d5f81610bf7565b8114610d6a57600080fd5b50565b600081359050610d7c81610d56565b92915050565b60008060408385031215610d9957610d98610b3f565b5b6000610da785828601610d6d565b9250506020610db885828601610b65565b9150509250929050565b610dcb81610bd6565b8114610dd657600080fd5b50565b600081359050610de881610dc2565b92915050565b600060208284031215610e0457610e03610b3f565b5b6000610e1284828501610dd9565b91505092915050565b7f796f7520646f6e2074206861766520616e79207469636b657400000000000000600082015250565b6000610e51601983610c8b565b9150610e5c82610e1b565b602082019050919050565b60006020820190508181036000830152610e8081610e44565b9050919050565b7f4e487b7100000000000000000000000000000000000000000000000000000000600052601160045260246000fd5b6000610ec182610b44565b9150610ecc83610b44565b925082821015610edf57610ede610e87565b5b828203905092915050565b7f4e487b7100000000000000000000000000000000000000000000000000000000600052603260045260246000fd5b7f4e487b7100000000000000000000000000000000000000000000000000000000600052602260045260246000fd5b60006002820490506001821680610f6057607f821691505b60208210811415610f7457610f73610f19565b5b50919050565b7f696420646f65736e207420657869737400000000000000000000000000000000600082015250565b6000610fb0601083610c8b565b9150610fbb82610f7a565b602082019050919050565b60006020820190508181036000830152610fdf81610fa3565b9050919050565b7f796f752063616e207420627579206d6f7265207468616e2031207469636b6574600082015250565b600061101c602083610c8b565b915061102782610fe6565b602082019050919050565b6000602082019050818103600083015261104b8161100f565b9050919050565b7f74686973207469636b6574206973206e6f7420666f722073656c6c0000000000600082015250565b6000611088601b83610c8b565b915061109382611052565b602082019050919050565b600060208201905081810360008301526110b78161107b565b9050919050565b7f6e6f7420656e6f75676820657468657265756d00000000000000000000000000600082015250565b60006110f4601383610c8b565b91506110ff826110be565b602082019050919050565b60006020820190508181036000830152611123816110e7565b9050919050565b600061113582610b44565b915061114083610b44565b9250817fffffffffffffffffffffffffffffffffffffffffffffffffffffffffffffffff048311821515161561117957611178610e87565b5b828202905092915050565b7f4e487b7100000000000000000000000000000000000000000000000000000000600052601260045260246000fd5b60006111be82610b44565b91506111c983610b44565b9250826111d9576111d8611184565b5b828204905092915050565b7f752072206e6f7420746865206f776e6572000000000000000000000000000000600082015250565b600061121a601183610c8b565b9150611225826111e4565b602082019050919050565b600060208201905081810360008301526112498161120d565b905091905056fea2646970667358221220a0cb2d0666fa2ec8036fe6bcab4f6042a91f58e33ee42e69d851be0e8d4003d164736f6c63430008080033",
  "immutableReferences": {},
  "source": "//SPDX-License-Identifier: MIT\r\n\r\npragma solidity ^0.8.8;\r\n\r\nstruct TicketStr{\r\n    uint256 id ;\r\n    uint256 dateAchat;\r\n    address acheteur;\r\n    uint256 prix;\r\n    bool enVente;\r\n    //https://meet.google.com/qut-jhfw-onh\r\n}\r\ncontract Ticket{\r\n    uint256 public nbrTicket;\r\n    TicketStr[] public tickets;\r\n    address public proprietaire;\r\n    string public nomEvenement;\r\n    uint256 public dateEvenement;\r\n    mapping( address => TicketStr ) public acheteurs;\r\n\r\n    constructor(uint256 _nbrTicket,uint256 _prix, \r\n    string memory _nomEvenement, uint256 _dateEvenement   ){\r\n            proprietaire= msg.sender;\r\n            nbrTicket=_nbrTicket;\r\n            nomEvenement=_nomEvenement;\r\n            dateEvenement=_dateEvenement;\r\n            for(uint256 i=1;i<=nbrTicket;i++)\r\n            {\r\n                TicketStr memory ticket=TicketStr(i,0,proprietaire,_prix,true);\r\n                tickets.push(ticket);\r\n            }\r\n    }\r\n\r\n    function vendre(bool _enVente,uint256 _price) external{\r\n         TicketStr storage ticket=   acheteurs[msg.sender];\r\n        \r\n        if(ticket.dateAchat==0)\r\n            revert('you don t have any ticket');\r\n        \r\n        ticket.enVente=_enVente;\r\n        ticket.prix=_price;\r\n        tickets[ticket.id-1].enVente=_enVente;\r\n        tickets[ticket.id-1].prix=_price;\r\n    }\r\n\r\n    function retirer()external{\r\n         TicketStr storage ticket=   acheteurs[msg.sender];\r\n        \r\n        if(ticket.dateAchat==0)\r\n            revert('you don t have any ticket');\r\n        \r\n        ticket.enVente=false;\r\n        tickets[ticket.id-1].enVente=false;\r\n    }\r\n\r\n\r\n\r\n\r\n    function acheter(uint256 _idTicket) public payable{\r\n      \r\n       /*   if(msg.value<prix)\r\n            revert('not enough ethereum');\r\n        if(acheteurs[msg.sender].dateAchat!=0)\r\n            revert('you can t buy more than 1 ticket');\r\n*/\r\n        if(_idTicket>nbrTicket)\r\n            revert('id doesn t exist');\r\n\r\n        if(acheteurs[msg.sender].dateAchat!=0) // 1 ticket per address\r\n            revert('you can t buy more than 1 ticket');\r\n\r\n        TicketStr storage ticket = tickets[_idTicket-1];\r\n\r\n        if(ticket.enVente==false)\r\n           revert('this ticket is not for sell'); \r\n\r\n        if(ticket.prix>msg.value)\r\n            revert('not enough ethereum'); \r\n\r\n        ticket.dateAchat=block.timestamp;\r\n        ticket.enVente=false;\r\n        uint256 balance = msg.value*99/100;//commision de 1%\r\n        payable(ticket.acheteur).transfer(balance);\r\n        delete acheteurs[ticket.acheteur];\r\n        ticket.acheteur=msg.sender;\r\n        acheteurs[msg.sender]=ticket;\r\n        \r\n\r\n    }\r\n    function recolter() external{\r\n        if(msg.sender!=proprietaire)\r\n            revert(\"u r not the owner\");\r\n       // address(0x617F2E2fD72FD9D5503197092aC168c91465E7f2).balance;\r\n        uint256 balance = address(this).balance;\r\n        payable(proprietaire).transfer(balance);\r\n    }\r\n}",
  "sourcePath": "C:\\Users\\msi\\Documents\\blockchain-ppts\\projects\\demo\\contracts\\Ticket.sol",
  "compiler": {
    "name": "solc",
    "version": "0.8.8+commit.dddeac2f.Emscripten.clang"
  },
  "schemaVersion": "3.4.13",
  "updatedAt": "2023-06-07T15:46:48.227Z",
  "networkType": "ethereum",
  "devdoc": {
    "kind": "dev",
    "methods": {},
    "version": 1
  },
  "userdoc": {
    "kind": "user",
    "methods": {},
    "version": 1
  }
}