{
  "contractName": "Ticket",
  "abi": [
    {
      "inputs": [
        {
          "internalType": "uint256",
          "name": "_nbrTicket",
          "type": "uint256"
        },
        {
          "internalType": "uint256",
          "name": "_prix",
          "type": "uint256"
        },
        {
          "internalType": "string",
          "name": "_nomEvenement",
          "type": "string"
        },
        {
          "internalType": "uint256",
          "name": "_dateEvenement",
          "type": "uint256"
        }
      ],
      "stateMutability": "nonpayable",
      "type": "constructor"
    },
    {
      "inputs": [
        {
          "internalType": "address",
          "name": "",
          "type": "address"
        }
      ],
      "name": "acheteurs",
      "outputs": [
        {
          "internalType": "uint256",
          "name": "id",
          "type": "uint256"
        },
        {
          "internalType": "uint256",
          "name": "dateAchat",
          "type": "uint256"
        },
        {
          "internalType": "address",
          "name": "acheteur",
          "type": "address"
        },
        {
          "internalType": "uint256",
          "name": "prix",
          "type": "uint256"
        },
        {
          "internalType": "bool",
          "name": "enVente",
          "type": "bool"
        }
      ],
      "stateMutability": "view",
      "type": "function",
      "constant": true
    },
    {
      "inputs": [],
      "name": "dateEvenement",
      "outputs": [
        {
          "internalType": "uint256",
          "name": "",
          "type": "uint256"
        }
      ],
      "stateMutability": "view",
      "type": "function",
      "constant": true
    },
    {
      "inputs": [],
      "name": "nbrTicket",
      "outputs": [
        {
          "internalType": "uint256",
          "name": "",
          "type": "uint256"
        }
      ],
      "stateMutability": "view",
      "type": "function",
      "constant": true
    },
    {
      "inputs": [],
      "name": "nomEvenement",
      "outputs": [
        {
          "internalType": "string",
          "name": "",
          "type": "string"
        }
      ],
      "stateMutability": "view",
      "type": "function",
      "constant": true
    },
    {
      "inputs": [
        {
          "internalType": "uint256",
          "name": "",
          "type": "uint256"
        }
      ],
      "name": "tickets",
      "outputs": [
        {
          "internalType": "uint256",
          "name": "id",
          "type": "uint256"
        },
        {
          "internalType": "uint256",
          "name": "dateAchat",
          "type": "uint256"
        },
        {
          "internalType": "address",
          "name": "acheteur",
          "type": "address"
        },
        {
          "internalType": "uint256",
          "name": "prix",
          "type": "uint256"
        },
        {
          "internalType": "bool",
          "name": "enVente",
          "type": "bool"
        }
      ],
      "stateMutability": "view",
      "type": "function",
      "constant": true
    },
    {
      "inputs": [
        {
          "internalType": "bool",
          "name": "_enVente",
          "type": "bool"
        },
        {
          "internalType": "uint256",
          "name": "_price",
          "type": "uint256"
        }
      ],
      "name": "vendre",
      "outputs": [],
      "stateMutability": "nonpayable",
      "type": "function"
    },
    {
      "inputs": [],
      "name": "retirer",
      "outputs": [],
      "stateMutability": "nonpayable",
      "type": "function"
    },
    {
      "inputs": [
        {
          "internalType": "uint256",
          "name": "_idTicket",
          "type": "uint256"
        }
      ],
      "name": "acheter",
      "outputs": [],
      "stateMutability": "payable",
      "type": "function",
      "payable": true
    },
    {
      "inputs": [],
      "name": "recolter",
      "outputs": [],
      "stateMutability": "nonpayable",
      "type": "function"
    }
  ],
  "bytecode": "0x60806040523480156200001157600080fd5b506040516200180638038062001806833981810160405281019062000037919062000474565b33600260006101000a81548173ffffffffffffffffffffffffffffffffffffffff021916908373ffffffffffffffffffffffffffffffffffffffff16021790555083600081905550816003908051906020019062000097929190620001ec565b50806004819055506000600190505b6000548111620001e15760006040518060a0016040528083815260200160008152602001600260009054906101000a900473ffffffffffffffffffffffffffffffffffffffff1673ffffffffffffffffffffffffffffffffffffffff1681526020018681526020016001151581525090506001819080600181540180825580915050600190039060005260206000209060050201600090919091909150600082015181600001556020820151816001015560408201518160020160006101000a81548173ffffffffffffffffffffffffffffffffffffffff021916908373ffffffffffffffffffffffffffffffffffffffff1602179055506060820151816003015560808201518160040160006101000a81548160ff0219169083151502179055505050508080620001d89062000534565b915050620000a6565b5050505050620005e7565b828054620001fa90620005b1565b90600052602060002090601f0160209004810192826200021e57600085556200026a565b82601f106200023957805160ff19168380011785556200026a565b828001600101855582156200026a579182015b82811115620002695782518255916020019190600101906200024c565b5b5090506200027991906200027d565b5090565b5b80821115620002985760008160009055506001016200027e565b5090565b6000604051905090565b600080fd5b600080fd5b6000819050919050565b620002c581620002b0565b8114620002d157600080fd5b50565b600081519050620002e581620002ba565b92915050565b600080fd5b600080fd5b6000601f19601f8301169050919050565b7f4e487b7100000000000000000000000000000000000000000000000000000000600052604160045260246000fd5b6200034082620002f5565b810181811067ffffffffffffffff8211171562000362576200036162000306565b5b80604052505050565b6000620003776200029c565b905062000385828262000335565b919050565b600067ffffffffffffffff821115620003a857620003a762000306565b5b620003b382620002f5565b9050602081019050919050565b60005b83811015620003e0578082015181840152602081019050620003c3565b83811115620003f0576000848401525b50505050565b60006200040d62000407846200038a565b6200036b565b9050828152602081018484840111156200042c576200042b620002f0565b5b62000439848285620003c0565b509392505050565b600082601f830112620004595762000458620002eb565b5b81516200046b848260208601620003f6565b91505092915050565b60008060008060808587031215620004915762000490620002a6565b5b6000620004a187828801620002d4565b9450506020620004b487828801620002d4565b935050604085015167ffffffffffffffff811115620004d857620004d7620002ab565b5b620004e68782880162000441565b9250506060620004f987828801620002d4565b91505092959194509250565b7f4e487b7100000000000000000000000000000000000000000000000000000000600052601160045260246000fd5b60006200054182620002b0565b91507fffffffffffffffffffffffffffffffffffffffffffffffffffffffffffffffff82141562000577576200057662000505565b5b600182019050919050565b7f4e487b7100000000000000000000000000000000000000000000000000000000600052602260045260246000fd5b60006002820490506001821680620005ca57607f821691505b60208210811415620005e157620005e062000582565b5b50919050565b61120f80620005f76000396000f3fe6080604052600436106100865760003560e01c8063bc1c23af11610059578063bc1c23af14610139578063d3bf141314610164578063d999e0f91461018d578063e611ef08146101a9578063f443316f146101c057610086565b80632c9ec6031461008b57806350b44712146100a2578063517a0569146100e357806361b422421461010e575b600080fd5b34801561009757600080fd5b506100a0610201565b005b3480156100ae57600080fd5b506100c960048036038101906100c49190610b1e565b6102f9565b6040516100da959493929190610bb6565b60405180910390f35b3480156100ef57600080fd5b506100f861036c565b6040516101059190610c09565b60405180910390f35b34801561011a57600080fd5b50610123610372565b6040516101309190610cbd565b60405180910390f35b34801561014557600080fd5b5061014e610400565b60405161015b9190610c09565b60405180910390f35b34801561017057600080fd5b5061018b60048036038101906101869190610d0b565b610406565b005b6101a760048036038101906101a29190610b1e565b610540565b005b3480156101b557600080fd5b506101be61097f565b005b3480156101cc57600080fd5b506101e760048036038101906101e29190610d77565b610a80565b6040516101f8959493929190610bb6565b60405180910390f35b6000600560003373ffffffffffffffffffffffffffffffffffffffff1673ffffffffffffffffffffffffffffffffffffffff168152602001908152602001600020905060008160010154141561028c576040517f08c379a000000000000000000000000000000000000000000000000000000000815260040161028390610df0565b60405180910390fd5b60008160040160006101000a81548160ff021916908315150217905550600060018083600001546102bd9190610e3f565b815481106102ce576102cd610e73565b5b906000526020600020906005020160040160006101000a81548160ff02191690831515021790555050565b6001818154811061030957600080fd5b90600052602060002090600502016000915090508060000154908060010154908060020160009054906101000a900473ffffffffffffffffffffffffffffffffffffffff16908060030154908060040160009054906101000a900460ff16905085565b60005481565b6003805461037f90610ed1565b80601f01602080910402602001604051908101604052809291908181526020018280546103ab90610ed1565b80156103f85780601f106103cd576101008083540402835291602001916103f8565b820191906000526020600020905b8154815290600101906020018083116103db57829003601f168201915b505050505081565b60045481565b6000600560003373ffffffffffffffffffffffffffffffffffffffff1673ffffffffffffffffffffffffffffffffffffffff1681526020019081526020016000209050600081600101541415610491576040517f08c379a000000000000000000000000000000000000000000000000000000000815260040161048890610df0565b60405180910390fd5b828160040160006101000a81548160ff0219169083151502179055508181600301819055508260018083600001546104c99190610e3f565b815481106104da576104d9610e73565b5b906000526020600020906005020160040160006101000a81548160ff0219169083151502179055508160018083600001546105159190610e3f565b8154811061052657610525610e73565b5b906000526020600020906005020160030181905550505050565b600054811115610585576040517f08c379a000000000000000000000000000000000000000000000000000000000815260040161057c90610f4f565b60405180910390fd5b6000600560003373ffffffffffffffffffffffffffffffffffffffff1673ffffffffffffffffffffffffffffffffffffffff168152602001908152602001600020600101541461060a576040517f08c379a000000000000000000000000000000000000000000000000000000000815260040161060190610fbb565b60405180910390fd5b60006001808361061a9190610e3f565b8154811061062b5761062a610e73565b5b90600052602060002090600502019050600015158160040160009054906101000a900460ff1615151415610694576040517f08c379a000000000000000000000000000000000000000000000000000000000815260040161068b90611027565b60405180910390fd5b34816003015411156106db576040517f08c379a00000000000000000000000000000000000000000000000000000000081526004016106d290611093565b60405180910390fd5b42816001018190555060008160040160006101000a81548160ff0219169083151502179055506000606460633461071291906110b3565b61071c919061113c565b90508160020160009054906101000a900473ffffffffffffffffffffffffffffffffffffffff1673ffffffffffffffffffffffffffffffffffffffff166108fc829081150290604051600060405180830381858888f19350505050158015610788573d6000803e3d6000fd5b50600560008360020160009054906101000a900473ffffffffffffffffffffffffffffffffffffffff1673ffffffffffffffffffffffffffffffffffffffff1673ffffffffffffffffffffffffffffffffffffffff16815260200190815260200160002060008082016000905560018201600090556002820160006101000a81549073ffffffffffffffffffffffffffffffffffffffff021916905560038201600090556004820160006101000a81549060ff02191690555050338260020160006101000a81548173ffffffffffffffffffffffffffffffffffffffff021916908373ffffffffffffffffffffffffffffffffffffffff16021790555081600560003373ffffffffffffffffffffffffffffffffffffffff1673ffffffffffffffffffffffffffffffffffffffff16815260200190815260200160002060008201548160000155600182015481600101556002820160009054906101000a900473ffffffffffffffffffffffffffffffffffffffff168160020160006101000a81548173ffffffffffffffffffffffffffffffffffffffff021916908373ffffffffffffffffffffffffffffffffffffffff160217905550600382015481600301556004820160009054906101000a900460ff168160040160006101000a81548160ff021916908315150217905550905050505050565b600260009054906101000a900473ffffffffffffffffffffffffffffffffffffffff1673ffffffffffffffffffffffffffffffffffffffff163373ffffffffffffffffffffffffffffffffffffffff1614610a0f576040517f08c379a0000000000000000000000000000000000000000000000000000000008152600401610a06906111b9565b60405180910390fd5b6000479050600260009054906101000a900473ffffffffffffffffffffffffffffffffffffffff1673ffffffffffffffffffffffffffffffffffffffff166108fc829081150290604051600060405180830381858888f19350505050158015610a7c573d6000803e3d6000fd5b5050565b60056020528060005260406000206000915090508060000154908060010154908060020160009054906101000a900473ffffffffffffffffffffffffffffffffffffffff16908060030154908060040160009054906101000a900460ff16905085565b600080fd5b6000819050919050565b610afb81610ae8565b8114610b0657600080fd5b50565b600081359050610b1881610af2565b92915050565b600060208284031215610b3457610b33610ae3565b5b6000610b4284828501610b09565b91505092915050565b610b5481610ae8565b82525050565b600073ffffffffffffffffffffffffffffffffffffffff82169050919050565b6000610b8582610b5a565b9050919050565b610b9581610b7a565b82525050565b60008115159050919050565b610bb081610b9b565b82525050565b600060a082019050610bcb6000830188610b4b565b610bd86020830187610b4b565b610be56040830186610b8c565b610bf26060830185610b4b565b610bff6080830184610ba7565b9695505050505050565b6000602082019050610c1e6000830184610b4b565b92915050565b600081519050919050565b600082825260208201905092915050565b60005b83811015610c5e578082015181840152602081019050610c43565b83811115610c6d576000848401525b50505050565b6000601f19601f8301169050919050565b6000610c8f82610c24565b610c998185610c2f565b9350610ca9818560208601610c40565b610cb281610c73565b840191505092915050565b60006020820190508181036000830152610cd78184610c84565b905092915050565b610ce881610b9b565b8114610cf357600080fd5b50565b600081359050610d0581610cdf565b92915050565b60008060408385031215610d2257610d21610ae3565b5b6000610d3085828601610cf6565b9250506020610d4185828601610b09565b9150509250929050565b610d5481610b7a565b8114610d5f57600080fd5b50565b600081359050610d7181610d4b565b92915050565b600060208284031215610d8d57610d8c610ae3565b5b6000610d9b84828501610d62565b91505092915050565b7f796f7520646f6e2074206861766520616e79207469636b657400000000000000600082015250565b6000610dda601983610c2f565b9150610de582610da4565b602082019050919050565b60006020820190508181036000830152610e0981610dcd565b9050919050565b7f4e487b7100000000000000000000000000000000000000000000000000000000600052601160045260246000fd5b6000610e4a82610ae8565b9150610e5583610ae8565b925082821015610e6857610e67610e10565b5b828203905092915050565b7f4e487b7100000000000000000000000000000000000000000000000000000000600052603260045260246000fd5b7f4e487b7100000000000000000000000000000000000000000000000000000000600052602260045260246000fd5b60006002820490506001821680610ee957607f821691505b60208210811415610efd57610efc610ea2565b5b50919050565b7f696420646f65736e207420657869737400000000000000000000000000000000600082015250565b6000610f39601083610c2f565b9150610f4482610f03565b602082019050919050565b60006020820190508181036000830152610f6881610f2c565b9050919050565b7f796f752063616e207420627579206d6f7265207468616e2031207469636b6574600082015250565b6000610fa5602083610c2f565b9150610fb082610f6f565b602082019050919050565b60006020820190508181036000830152610fd481610f98565b9050919050565b7f74686973207469636b6574206973206e6f7420666f722073656c6c0000000000600082015250565b6000611011601b83610c2f565b915061101c82610fdb565b602082019050919050565b6000602082019050818103600083015261104081611004565b9050919050565b7f6e6f7420656e6f75676820657468657265756d00000000000000000000000000600082015250565b600061107d601383610c2f565b915061108882611047565b602082019050919050565b600060208201905081810360008301526110ac81611070565b9050919050565b60006110be82610ae8565b91506110c983610ae8565b9250817fffffffffffffffffffffffffffffffffffffffffffffffffffffffffffffffff048311821515161561110257611101610e10565b5b828202905092915050565b7f4e487b7100000000000000000000000000000000000000000000000000000000600052601260045260246000fd5b600061114782610ae8565b915061115283610ae8565b9250826111625761116161110d565b5b828204905092915050565b7f752072206e6f7420746865206f776e6572000000000000000000000000000000600082015250565b60006111a3601183610c2f565b91506111ae8261116d565b602082019050919050565b600060208201905081810360008301526111d281611196565b905091905056fea264697066735822122043c3214424584d26657140c88399630eb017c9492420fc06d2f5829720678c5064736f6c63430008080033",
  "immutableReferences": {},
  "source": "//SPDX-License-Identifier: MIT\r\n\r\npragma solidity ^0.8.8;\r\n\r\nstruct TicketStr{\r\n    uint256 id ;\r\n    uint256 dateAchat;\r\n    address acheteur;\r\n    uint256 prix;\r\n    bool enVente;\r\n    //https://meet.google.com/qut-jhfw-onh\r\n}\r\ncontract Ticket{\r\n    uint256 public nbrTicket;\r\n    TicketStr[] public tickets;\r\n    address private proprietaire;\r\n    string public nomEvenement;\r\n    uint256 public dateEvenement;\r\n    mapping( address => TicketStr ) public acheteurs;\r\n\r\n    constructor(uint256 _nbrTicket,uint256 _prix, \r\n    string memory _nomEvenement, uint256 _dateEvenement   ){\r\n            proprietaire= msg.sender;\r\n            nbrTicket=_nbrTicket;\r\n            nomEvenement=_nomEvenement;\r\n            dateEvenement=_dateEvenement;\r\n            for(uint256 i=1;i<=nbrTicket;i++)\r\n            {\r\n                TicketStr memory ticket=TicketStr(i,0,proprietaire,_prix,true);\r\n                tickets.push(ticket);\r\n            }\r\n    }\r\n\r\n    function vendre(bool _enVente,uint256 _price) external{\r\n         TicketStr storage ticket=   acheteurs[msg.sender];\r\n        \r\n        if(ticket.dateAchat==0)\r\n            revert('you don t have any ticket');\r\n        \r\n        ticket.enVente=_enVente;\r\n        ticket.prix=_price;\r\n        tickets[ticket.id-1].enVente=_enVente;\r\n        tickets[ticket.id-1].prix=_price;\r\n    }\r\n\r\n    function retirer()external{\r\n         TicketStr storage ticket=   acheteurs[msg.sender];\r\n        \r\n        if(ticket.dateAchat==0)\r\n            revert('you don t have any ticket');\r\n        \r\n        ticket.enVente=false;\r\n        tickets[ticket.id-1].enVente=false;\r\n    }\r\n\r\n\r\n\r\n\r\n    function acheter(uint256 _idTicket) public payable{\r\n      \r\n       /*   if(msg.value<prix)\r\n            revert('not enough ethereum');\r\n        if(acheteurs[msg.sender].dateAchat!=0)\r\n            revert('you can t buy more than 1 ticket');\r\n*/\r\n        if(_idTicket>nbrTicket)\r\n            revert('id doesn t exist');\r\n\r\n        if(acheteurs[msg.sender].dateAchat!=0) // 1 ticket per address\r\n            revert('you can t buy more than 1 ticket');\r\n\r\n        TicketStr storage ticket = tickets[_idTicket-1];\r\n\r\n        if(ticket.enVente==false)\r\n           revert('this ticket is not for sell'); \r\n\r\n        if(ticket.prix>msg.value)\r\n            revert('not enough ethereum'); \r\n\r\n        ticket.dateAchat=block.timestamp;\r\n        ticket.enVente=false;\r\n        uint256 balance = msg.value*99/100;//commision de 1%\r\n        payable(ticket.acheteur).transfer(balance);\r\n        delete acheteurs[ticket.acheteur];\r\n        ticket.acheteur=msg.sender;\r\n        acheteurs[msg.sender]=ticket;\r\n        \r\n\r\n    }\r\n    function recolter() external{\r\n        if(msg.sender!=proprietaire)\r\n            revert(\"u r not the owner\");\r\n       // address(0x617F2E2fD72FD9D5503197092aC168c91465E7f2).balance;\r\n        uint256 balance = address(this).balance;\r\n        payable(proprietaire).transfer(balance);\r\n    }\r\n}",
  "sourcePath": "C:\\Users\\msi\\Documents\\blockchain-ppts\\projects\\demo\\contracts\\Ticket.sol",
  "compiler": {
    "name": "solc",
    "version": "0.8.8+commit.dddeac2f.Emscripten.clang"
  },
  "schemaVersion": "3.4.13",
  "updatedAt": "2023-06-07T15:33:54.301Z",
  "networkType": "ethereum",
  "devdoc": {
    "kind": "dev",
    "methods": {},
    "version": 1
  },
  "userdoc": {
    "kind": "user",
    "methods": {},
    "version": 1
  }
}